:060000000A128A110E280D
:10000800FE00030E83120313A8000A08A9000A12AF
:100018008A11D6280A128A111128831332308400D3
:1000280042300A128A11F7220A128A1183010A122F
:100038008A11C22AF80078080319232824283828A6
:10004800F31F2728282838287009FA007109FB00AF
:100058007209FC007309FD00FA0A0319FB0A031967
:10006800FC0A0319FD0A40287308FD007208FC0009
:100078007108FB007008FA007308720471047004B8
:10008800031D4728482851280030F3000030F200AB
:100098000030F1000030F000D5289630F9006128D2
:1000A8000130F4007408F90701300310FD0CFC0C52
:1000B800FB0CFA0CFF3E031D5928FE307D05031D7D
:1000C80066286728542883280130F4007408F90743
:1000D8000130FA07003003180130FB07003003181D
:1000E8000130FC07003003180130FD070130031010
:1000F800FD0CFC0CFB0CFA0CFF3E031D7B28FF30AB
:100108007D05031D88288928682895280130F9026B
:100118000130F4000310FA0DFB0DFC0DFD0DF40B7E
:100128008E28FC1B982899289F28023079020318EA
:100138009E289F288A287918A228A328AB28FF3050
:10014800FA05FF30FB057F30FC05FF30FD05031085
:10015800F90C7908F400F501F601F70118300310DD
:10016800F40DF50DF60DF70DFF3E031DB3287408C9
:10017800FA047508FB047608FC047708FD0478087F
:100188000319C728C828CD28F31FCB28CC28CD2889
:10019800FD177D08F3007C08F2007B08F1007A085F
:1001A800F00008008C1DD928DA283A291308A6007F
:1001B800A7012608BE002708BF00073083120313D3
:1001C800A7007C30A600A60BE728A70BE7280000AD
:1001D800831203133E033F04031DF328F428F72872
:1001E8004008930039293E083F04031DFC28FD28D8
:1001F80039290030A000A1000A128A1175210A12BB
:100208008A11831203132008AA002108AB000030CA
:10021800AB1BFF30AC00AD002D08F3002C08F2003A
:100228002B08F1002A08F00001300A128A111E205A
:100238000A128A11730883120313B9007208B800EE
:100248007108B7007008B6003908F3003808F200E2
:100258003708F1003608F0000A128A1100220A1243
:100268008A1170088312031393008C110C1E3D2908
:100278003E293F290C128C1E4229432944298C12FD
:100288000C1F4729482949290C130B1D4C294D29B6
:100298004E290B110B1C512952296E29061C552970
:1002A800562961290130C0070318C10A0030C10767
:1002B8000130A600260888076D29861C642965294F
:1002C8006D290130C0020030031CC103C102013096
:1002D80088020B1029088A00280E8300FE0E7E0E65
:1002E80009008312031320082104031D7C297D299A
:1002F800B329C3309F050F3083120313A200A20B4A
:1003080083298629831203139F149F188C298D290A
:1003180089290C131E08A200A301A401A501250820
:10032800F3002408F2002308F1002208F00000304E
:100338000A128A111E200A128A11730883120313E3
:10034800B5007208B4007108B3007008B2000F302D
:1003580083120313A200A20BAF29B229EA292003B2
:100368002104031DB829B929EA291F08C33904380B
:100378009F000F3083120313A200A20BC129C429C6
:10038800831203139F149F18CA29CB29C7290C135A
:100398001E08A200A301A401A5012508F300240852
:1003A800F2002308F1002208F00000300A128A1136
:1003B8001E200A128A11730883120313B5007208EB
:1003C800B4007108B3007008B200AB29831203139C
:1003D8003508F3003408F2003308F1003208F00061
:1003E8000A128A1100220A128A1171088312031351
:1003F800A1007008A00008000310720D730DF90029
:100408007908031D082A092A122A0030F30000304F
:10041800F2000030F1000030F000752A7008F40096
:100428007108F5007208F6007308F7001F30031012
:10043800F70CF60CF50CF40CFF3E031D1B2A740890
:10044800F800F217FF30F005FF30F105FF30F20534
:100458000030F3059630F902F91F332A342A4E2A60
:100468007908803A973E03183A2A3B2A3C2A092AF7
:1004780001300310F30CF20CF10CF00CFF3E031DDD
:100488003D2A0130F4007408F907031D4C2A4D2A4F
:100498003C2A652A20307902031C532A542A602AF0
:1004A800092A0130F4000310F00DF10DF20DF30DDF
:1004B800F40B572A0130F9027908031D642A652ACA
:1004C800552A78080319692A6A2A752AF009F10950
:1004D800F209F309F00A0319F10A0319F20A0319D8
:1004E800F30A080001308316031788008901E130F8
:1004F800831603138500033086008801890183125F
:1005080003138501860188018901033083160313CB
:10051800960081138B158B170B178C150C178B12E4
:10052800831203138C110C130B100B11AE01AF01C6
:10053800B00124300A128A11A4220A128A11080072
:1005480083120313B1008316031387128312031354
:10055800311DAF2AB02AB62A300883160313940037
:100568008715BC2A2E0830048316031394008711BC
:100578008312031331082F04940008000A128A1109
:1005880076220A128A110A128A11DE220A128A11A6
:1005980083120313C001C101BE01BF010030B900BD
:1005A8000030B8000030B7000030B600DA2A0A126E
:1005B8008A110E28831203131F083F3940389F0001
:1005C800831603139F121F129F13C3308312031342
:1005D8009F051F140C130F3083120313AE00AE0BCC
:1005E800F32AF62A080064008001840A0406031925
:0605F80000340406F82A9D
:08400000FF3FFF3FFF3FFF3FC0
:04400E00D420FF3F7C
:00000001FF
