:060000000A128A110E280D
:10000800FE00030E83120313AA000A08AB000A12AB
:100018008A1166290A128A11112883120313B4015E
:10002800B501B601B701B801B901BA01BB01BC01FC
:10003800BD01BE01BF0183010A128A11C62AF80058
:1000480078080319282829283D28F31F2C282D284B
:100058003D287009FA007109FB007209FC00730958
:10006800FD00FA0A0319FB0A0319FC0A0319FD0A21
:1000780045287308FD007208FC007108FB00700831
:10008800FA007308720471047004031D4C284D288B
:1000980056280030F3000030F2000030F100003044
:1000A800F000DA289630F90066280130F400740868
:1000B800F90701300310FD0CFC0CFB0CFA0CFF3E99
:1000C800031D5E28FE307D05031D6B286C2859280A
:1000D80088280130F4007408F9070130FA07003065
:1000E80003180130FB07003003180130FC0700300B
:1000F80003180130FD0701300310FD0CFC0CFB0C4C
:10010800FA0CFF3E031D8028FF307D05031D8D2856
:100118008E286D289A280130F9020130F400031066
:10012800FA0DFB0DFC0DFD0DF40B9328FC1B9D280F
:100138009E28A428023079020318A328A4288F280F
:100148007918A728A828B028FF30FA05FF30FB0542
:100158007F30FC05FF30FD050310F90C7908F40029
:10016800F501F601F70118300310F40DF50DF60D41
:10017800F70DFF3E031DB8287408FA047508FB0440
:100188007608FC047708FD0478080319CC28CD28E4
:10019800D228F31FD028D128D228FD177D08F300D4
:1001A8007C08F2007B08F1007A08F000080083124E
:1001B800031320082104031DE228E3281929C3306A
:1001C8009F05073083120313A200A20BE928000041
:1001D800831203139F149F18F228F328EF280C1397
:1001E8001E08A200A301A401A5012508F300240804
:1001F800F2002308F1002208F00000300A128A11E8
:1002080023200A128A11730883120313BF0072088D
:10021800BE007108BD007008BC00073083120313CC
:10022800A200A20B15290000502920032104031D58
:100238001E291F2950291F08C33904389F00073079
:1002480083120313A200A20B2729000083120313B1
:100258009F149F18302931292D290C131E08A2003C
:10026800A301A401A5012508F3002408F20023082E
:10027800F1002208F00000300A128A1123200A1225
:100288008A11730883120313BF007208BE00710835
:10029800BD007008BC001129831203133F08F30046
:1002A8003E08F2003D08F1003C08F0000A128A11ED
:1002B800F0210A128A11710883120313A100700831
:1002C800A00008008C1D69296A29D0291308A600F6
:1002D800A701A801A9012908F3002808F2002708A6
:1002E800F1002608F00000300A128A1123200A12B1
:1002F8008A11730883120313B7007208B6007108D5
:10030800B5007008B400043083120313A7003D3011
:10031800A600A60B8D29A70B8D2900308312031385
:10032800A000A1000A128A11DB200A128A11831286
:1003380003132008AC002108AD000030AD1BFF30CE
:10034800AE00AF002F08F3002E08F2002D08F100D0
:100358002C08F00001300A128A1123200A128A118F
:10036800730883120313BB007208BA007108B9003E
:100378007008B8003B08F3003A08F2003908F100A9
:100388003808F0000A128A11F0210A128A1170083E
:100398008312031393008C110C1ED329D429D52959
:1003A8000C128C1ED829D929DA298C120C1FDD29A8
:1003B800DE29DF290C130B1DE229E329E4290B119F
:1003C8000B1CE729E829E9290B102B088A002A0EBB
:1003D8008300FE0E7E0E09000310720D730DF900E6
:1003E8007908031DF829F929022A0030F3000030A2
:1003F800F2000030F1000030F000652A7008F400C7
:100408007108F5007208F6007308F7001F30031032
:10041800F70CF60CF50CF40CFF3E031D0B2A7408C0
:10042800F800F217FF30F005FF30F105FF30F20554
:100438000030F3059630F902F91F232A242A3E2AB0
:100448007908803A973E03182A2A2B2A2C2AF92958
:1004580001300310F30CF20CF10CF00CFF3E031DFD
:100468002D2A0130F4007408F907031D3C2A3D2A9F
:100478002C2A552A20307902031C432A442A502A60
:10048800F9290130F4000310F00DF10DF20DF30D10
:10049800F40B472A0130F9027908031D542A552A1A
:1004A800452A78080319592A5A2A652AF009F109B0
:1004B800F209F309F00A0319F10A0319F20A0319F8
:1004C800F30A0800013083160317880089012130D8
:1004D800831603138500860188018901831203139B
:1004E80085018601880189018B170B178316031371
:1004F8008C150C178B12831203138C110C130B1011
:100508000B11B001B101B20124300A128A118F22F5
:100518000A128A11080083120313B3008316031307
:10052800871283120313331D9A2A9B2AA12A3208A1
:100538008316031394008715A72A300832048316FC
:1005480003139400871183120313330831049400B2
:100558000800831203131F083F3940389F00831691
:1005680003139F121F129F13C330831203139F0597
:100578001F140C13073083120313B000B00BC22AE8
:10058800000008000A128A1166220A128A110A1249
:100598008A11AD220A128A11D02A0A128A110E284B
:08400000FF3FFF3FFF3FFF3FC0
:04400E00D420FF3F7C
:00000001FF
