:060000000A128A110C280F
:10000800FE00030EF0000A08F1000A168A15A52959
:100018000A128A110F288317A030FD000730FE004E
:10002800F030FF00903084000A168A151F210A124A
:100038008A1183160317A001A101A201A30183134A
:10004800CA308400ED300A168A15E9200A128A118E
:1000580083120313EF01FA01FB0183010A168A11C7
:100068005F2D83160313BE006B30B100652E25305B
:1000780045060319402841284B283E0884004508B6
:10008800831380000130A8002808BE07652EB2013E
:10009800B301831203136A0884000A168A110A201E
:1000A8000A128A112E3A031D5A285B28AD28831696
:1000B800031333170130A800280883120313EA0733
:1000C80083160313BF01C0019B280A30F2000030D9
:1000D800F300831603134008F5003F08F4000A16DE
:1000E8008A1580210A128A11730883160313C00027
:1000F8007208BF00831203136A0884000A168A1163
:100108000A200A128A11D03E83160313A800FF3072
:1001180003180030A9002808BF070318C00A2908D7
:10012800C0070130A800280883120313EA078312C6
:100138006A0884000A168A110A200A128A110A1605
:100148008A1509210A128A110318AB28AC286928D4
:10015800B52883160313BF01C0013316B52833151C
:10016800D328013083120313EA07FF306A0784009B
:100178000A168A110A200A128A1183160313C50067
:10018800A800A9012908003A0319CB28652E2808D8
:10019800003A0319792E663A0319B328652E003000
:1001A8003205A80007303305A900280829040319D7
:1001B800DE28DF28222E331EE228E328E72806302F
:1001C800BF000030C0003108840083130008C1005C
:1001D800840A0008C200840A0008C300840A0008D0
:1001E800C4000430A8002808B1074408F5004308F3
:1001F800F4004208F3004108F2000030F900003032
:10020800F8000030F7000030F6000A168A15892534
:100218000A128A110318112912292F298316031388
:100228004408F5004308F4004208F3004108F200CE
:100238000A168A15F1200A128A1175088316031303
:10024800C4007408C3007308C2007208C1000330F8
:10025800B2040030B30483160313B801B90144088B
:10026800F5004308F4004208F3004108F2000030AA
:10027800F9000030F8000030F7000030F6000A16E8
:100288008A150C230A128A1103184B294C294C2A67
:10029800031083160313430D440D823EB800FF304C
:1002A80003180030B900FF30B8070318B90AFF3047
:1002B800B9070330F2000030F3003908F5003808B8
:1002C800F4000A168A1580210A128A117308831607
:1002D8000313B9007208B8000A3083120313A00090
:1002E8000030A10083160313390883120313A300F7
:1002F80083160313380883120313A2000A168A15FB
:1003080020250A128A118312031321088316031366
:10031800B90083120313200883160313B800B91F0A
:10032800962997299D29FF30B8070318B90AFF3085
:10033800B9073803FF3A0A128A159D240A128A114E
:1003480083120313450883160313BD008312031396
:10035800440883160313BC0083120313430883164F
:100368000313BB0083120313420883160313BA0056
:10037800440883120313AB00831603134308831244
:100388000313AA0083160313420883120313A90058
:1003980083160313410883120313A800831603135B
:1003A8003D0883120313AF00831603133C0883121E
:1003B8000313AE00831603133B0883120313AD0027
:1003C800831603133A0883120313AC000A128A1522
:1003D80058210A128A11831203132B088316031358
:1003E800BD00831203132A0883160313BC0083126B
:1003F8000313290883160313BB0083120313280869
:1004080083160313BA003D08F5003C08F4003B08C6
:10041800F3003A08F2003F30F9008030F80000306D
:10042800F7000030F6000A168A1589250A128A1183
:1004380003181F2A202A292AFF3083160313B80716
:100448000318B90AFF30B9074C2A831603133D086D
:10045800F5003C08F4003B08F3003A08F20041308C
:10046800F9002030F8000030F7000030F6000A16D6
:100478008A1589250A128A11031C432A442A4C2A00
:10048800013083160313B8070318B90A0030B907F7
:10049800831603134008803AFF0080307F02031D53
:1004A800572A0D303F0203185A2A5B2AA22A8316BC
:1004B80003133F080A168A11FA200A128A118312B6
:1004C80003134508D9004408D8004308D700420858
:1004D800D60083160313440883120313DD00831622
:1004E8000313430883120313DC0083160313420823
:1004F80083120313DB0083160313410883120313CB
:10050800DA000A168A1107230A128A1183120313C2
:10051800590883160313C40083120313580883165B
:100528000313C30083120313570883160313C2006F
:1005380083120313560883160313C100831603138B
:100548003908803AFF0080307F02031DAD2A0A3047
:1005580038020318B02AB12A022B83160313440861
:10056800F5004308F4004208F3004108F2000030A7
:10057800F9000030F8000030F7000030F6000A16E5
:100588008A150C230A128A110318CB2ACC2A742B39
:1005980083160313440883120313D8008316031326
:1005A800430883120313D7008316031342088312E8
:1005B8000313D60083160313410883120313D500CF
:1005C8000A128A1529200A128A118312031358085D
:1005D800570456045504031DF22AF32A742B831674
:1005E80003133908803AFF0080307F02031DFE2A7A
:1005F80002303802031C012B022B742B83160313C1
:100608003D08F5003C08F4003B08F3003A08F20006
:100618004030F9008930F8007030F7005F30F6009C
:100628000A168A1589250A128A1103181C2B1D2BF4
:10063800262BF73083160313B8070318B90AFF30BF
:10064800B9072E2BF83083160313B8070318B90A15
:10065800FF30B90738080A128A159D240A128A1130
:1006680083120313450883160313BD008312031373
:10067800440883160313BC0083120313430883162C
:100688000313BB0083120313420883160313BA0033
:100698004408F5004308F4004208F3004108F2005A
:1006A8003D08F9003C08F8003B08F7003A08F60056
:1006B8000A128A1138270A128A1175088316031339
:1006C800B7007408B6007308B5007208B4000030AB
:1006D800C4000030C3000030C2000030C100DA2B73
:1006E80083160313440883120313D80083160313D5
:1006F800430883120313D700831603134208831297
:100708000313D60083160313410883120313D5007D
:100718000A128A1529200A128A118312031358080B
:1007280083160313B70083120313570883160313A2
:10073800B60083120313560883160313B5008312F9
:100748000313550883160313B4003708F500360859
:10075800F4003508F3003408F20000300A128A1158
:100768007E260A128A11750883160313A3007408DB
:10077800A2007308A1007208A0004408A70043085B
:10078800A6004208A5004108A4000A168A155C23A1
:100798000A128A11831603132308C4002208C3000F
:1007A8002108C2002008C100B801B901C501C50A65
:1007B8004508A80001300310A80DFF3E031DDF2BDC
:1007C8000310280D693E84000A168A110A200A12AD
:1007D8008A11A9000A168A110A200A128A11AA0087
:1007E8000A168A110A200A128A11AB000A168A11FF
:1007F8000A200A128A11AC002C083702031D0E2C9D
:100808002B083602031D0E2C2A083502031D0E2C58
:10081800290834020318112C122C132C1D2C01301A
:10082800A8002808C5070A304506031D1C2C1D2CE6
:10083800DC2B03303205A80000303305A900280856
:1008480029040319282C292C972C3E0884002D30C4
:10085800831380000130A8002808BE07972C45089C
:10086800A80001300310A80DFF3E031D362C03100D
:10087800280D693E84000A168A110A200A128A1174
:10088800F2000A168A110A200A128A11F3000A16BF
:100898008A110A200A128A11F4000A168A110A20FB
:1008A8000A128A11F5003708F9003608F8003508E9
:1008B800F7003408F6000A168A15B8240A128A11B5
:1008C800750883160313BD007408BC007308BB00C9
:1008D8007208BA000030F5000030F4000030F30070
:1008E8000A30F2003D08F9003C08F8003B08F70020
:1008F8003A08F6000A168A15AC230A128A117508F6
:1009080083160313BD007408BC007308BB0072088B
:10091800BA003E0884003A08303E83138000013054
:10092800A8002808BE070130C502450A031D9D2CF2
:100938009E2C332CB02C831603133E0884003030D1
:10094800831380000130A8002808BE07FF30B807CD
:100958000318B90AFF30B9073908803AFF00803018
:100968007F02031DB92C013038020318BC2CBD2CA2
:100978009F2C831603134008803AFF0080307F02C3
:10098800031DC82C09303F02031CCB2CCC2CD12CC6
:10099800083083160313C500D52C831603133F08AC
:1009A800C5004508A800A9012808BF022908031C9A
:1009B800C003C00245080319E22CE32CEC2C3E08C6
:1009C80084002E30831380000130A8002808BE0759
:1009D80045080A128A159D240A128A1183120313E4
:1009E800450883160313B0008312031344088316C3
:1009F8000313AF0083120313430883160313AE00D7
:100A080083120313420883160313AD0030088312C0
:100A18000313AF00831603132F0883120313AE00CA
:100A2800831603132E0883120313AD0083160313D2
:100A38002D0883120313AC00831603134408831292
:100A48000313AB0083160313430883120313AA008E
:100A580083160313420883120313A9008316031392
:100A6800410883120313A8000A128A1558210A1292
:100A78008A11831203132B08D8002A08D7002908E3
:100A8800D6002808D5000A128A1529200A128A11C8
:100A980083120313580883160313B7008312031332
:100AA800570883160313B6008312031356088316D8
:100AB8000313B50083120313550883160313B400F8
:100AC800042E4508A80001300310A80DFF3E031DA1
:100AD800682D0310280D693E84000A168A110A2021
:100AE8000A128A11F2000A168A110A200A128A11B9
:100AF800F3000A168A110A200A128A11F4000A164B
:100B08008A110A200A128A11F5003708F9003608F6
:100B1800F8003508F7003408F6000A168A15B824D4
:100B28000A128A11750883160313BD007408BC00E5
:100B38007308BB007208BA000030F5000030F400FA
:100B48000030F3000A30F2003D08F9003C08F800D4
:100B58003B08F7003A08F6000A168A15AC230A1271
:100B68008A11750883160313BD007408BC00730846
:100B7800BB007208BA003E0884003A08303E83136E
:100B880080000130A8002808BE074508A8000130E9
:100B98000310A80DFF3E031DCC2D0310280D693E40
:100BA80084000A168A110A200A128A11F2000A160B
:100BB8008A110A200A128A11F3000A168A110A20D9
:100BC8000A128A11F4000A168A110A200A128A11D6
:100BD800F5003708F9003608F8003508F70034083A
:100BE800F6000A168A15AC230A128A1175088316AC
:100BF8000313B7007408B6007308B5007208B40090
:100C08000130C502450A031D0A2E0B2E652D1B2E29
:100C18003E0884003030831380000130A800280883
:100C2800BE07FF30BF070318C00AFF30C0073F08E0
:100C38004004031D202E212E0C2E652E3F08400453
:100C4800031D272E282E362E370836043504340483
:100C5800031D2F2E302E362E0130BF070318C00A71
:100C68000030C0074008803A803C031D3D2E3F08F5
:100C780045020318402E412E422E512E831603138F
:100C88004008803AA80080302802031D4D2E4508F0
:100C98003F020318502E512E512E03308316031392
:100CA8003205A80000303305A900280829040319D3
:100CB8005E2E5F2E652E3E0884002D308313800043
:100CC8004628013083120313EA07FF306A078400BD
:100CD8000A168A110A200A128A1183160313C500FC
:100CE8004508031D782E792E3B283E08840083137F
:100CF8008001080083120313A00020080319852E21
:100D0800862E9A2EF51F892E8A2E9A2E7209A200F7
:100D18007309A3007409A4007509A500A20A0319A0
:100D2800A30A0319A40A0319A50AA22E7508A50087
:100D38007408A4007308A3007208A200750874045C
:100D480073047204031DA92EAA2EB32E0030F500D9
:100D58000030F4000030F3000030F200372F9630F6
:100D6800A100C32E0130F6007608A1070130031058
:100D7800A50CA40CA30CA20CFF3E031DBB2EFE3039
:100D88002505031DC82EC92EB62EE52E0130F60006
:100D98007608A1070130A207003003180130A30725
:100DA800003003180130A407003003180130A507EC
:100DB80001300310A50CA40CA30CA20CFF3E031DCC
:100DC800DD2EFF302505031DEA2EEB2ECA2EF72E49
:100DD8000130A1020130F6000310A20DA30DA40DED
:100DE800A50DF60BF02EA41BFA2EFB2E012F0230B8
:100DF80021020318002F012FEC2E2118042F052F94
:100E08000D2FFF30A205FF30A3057F30A405FF306A
:100E1800A5050310A10C2108F600F701F801F90156
:100E280018300310F60DF70DF80DF90DFF3E031DF0
:100E3800152F7608A2047708A3047808A404790873
:100E4800A50420080319292F2A2F2F2FF51F2D2F2E
:100E58002E2F2F2FA5172508F5002408F4002308A6
:100E6800F3002208F20008000310740D750D8312B8
:100E78000313A6002608031D422F432F4C2F0030D2
:100E8800F5000030F4000030F3000030F200EF2FDE
:100E98000310780D790DA5002508031D542F552F33
:100EA800562F432FF417FF30F205FF30F305FF30BC
:100EB800F4050030F505F817FF30F605FF30F705A3
:100EC800FF30F8050030F9050030A4000030A30019
:100ED8000030A2000030A1007F30A602A030250714
:100EE800A0002008A6022030A5000130A0000310B1
:100EF800A10DA20DA30DA40DA00B7B2F79087502DF
:100F0800031D902F78087402031D902F7708730231
:100F1800031D902F76087202031C932F942FA32F82
:100F28007608F2027708031C770FF3027808031C8F
:100F3800780FF4027908031C790FF50221140130A7
:100F4800A0000310F20DF30DF40DF50DA00BA52F65
:100F58000130A502031DB12FB22F792FA61FB52F7F
:100F6800B62FD02F2608803A9F3E0318BC2FBD2FDE
:100F7800BE2F432F01300310A40CA30CA20CA10C0C
:100F8800FF3E031DBF2F0130A0002008A607031D48
:100F9800CE2FCF2FBE2FE72F20302602031CD52FB0
:100FA800D62FE22F432F0130A0000310A10DA20D70
:100FB800A30DA40DA00BD92F0130A6022608031DEE
:100FC800E62FE72FD72F2408F5002308F40022087E
:100FD800F3002108F200080030343134323433345D
:100FE800343435343634373438343934413442348F
:100FF800433444344534463483120313A400A00117
:10100800A1017208F400F5017408A2007508A30094
:10101800241C0F28102816282208A0070318A10A44
:101028002308A10701300310A20DA30DFF3E031DE5
:1010380017280310A40C2408031D232824280C288F
:101048002108F3002008F20008000310831203139C
:10105800570D580DDE005E08031D332834283D283F
:101068000030D8000030D7000030D6000030D5005E
:10107800A0285508D9005608DA005708DB00580898
:10108800DC001F300310DC0CDB0CDA0CD90CFF3E43
:10109800031D46285908DD00D717FF30D505FF3056
:1010A800D605FF30D7050030D8059630DE02DE1FA2
:1010B8005E285F2879285E08803A973E03186528DD
:1010C80066286728342801300310D80CD70CD60CB2
:1010D800D50CFF3E031D68280130D9005908DE07EA
:1010E800031D772878286728902820305E02031C83
:1010F8007E287F288B2834280130D9000310D50D8D
:10110800D60DD70DD80DD90B82280130DE025E0826
:10111800031D8F28902880285D0803199428952896
:10112800A028D509D609D709D809D50A0319D60A96
:101138000319D70A0319D80A08007208831203137F
:10114800A0007308A1007408A2000310210D220D4D
:10115800A8002808031DB128B228BB280030F500D4
:101168000030F4000030F3000030F2005729760810
:10117800A0007708A1007808A2000310210D220D15
:10118800A7002708031DC928CA28CB28B228F317A7
:10119800FF30F205FF30F3050030F405F717FF3094
:1011A800F605FF30F7050030F8050030A6000030DE
:1011B800A5000030A4000030A3007F30A8029830BA
:1011C8002707A0002008A8021830A7000130A000B7
:1011D8000310A30DA40DA50DA60DA00BEC287808EF
:1011E8007402031DFD2877087302031DFD28760885
:1011F8007202031C002901290C297608F2027708DB
:10120800031C770FF3027808031C780AF4022314EE
:1012180001300310F20DF30DF40DFF3E031D0D29EF
:101228000130A702031D19291A29EA28A81F1D2918
:101238001E2938292808803A973E03182429252989
:101248002629B22801300310A60CA50CA40CA30C67
:10125800FF3E031D27290130A0002008A807031D11
:101268003629372926294F2918302802031C3D29F9
:101278003E294A29B2280130A0000310A30DA40D6D
:10128800A50DA60DA00B41290130A8022808031DB1
:101298004E294F293F292608F5002508F40024087F
:1012A800F3002308F2000800831203132B08803987
:1012B800B5002B08B0003007BB00AA1F64296529B8
:1012C80066293B143B0803196A296B297A293B0ACA
:1012D800031D6F29702978290030AB000030AA005F
:1012E8000030A9000030A800AA1782290030AB00FE
:1012F8000030AA000030A9000030A8002F0880396B
:10130800B0003008B5062F08B0003007B600AE1F91
:101318008E298F299029361436080319942995297E
:10132800A429360A031D99299A29A2290030AF0059
:101338000030AE000030AD000030AC00AE17AC2974
:101348000030AF000030AE000030AD000030AC001F
:1013580036080319B029B129B6293B08031DB52958
:10136800B629BF290030AB000030AA000030A90020
:101378000030A8009C2C2808F2002E080A128A15B2
:1013880000200A128A15730883120313C100720819
:10139800C0004008B000B101B201B3013308BA007F
:1013A8003208B9003108B8003008B7004108B00069
:1013B800B101B201B3013308BF003208BE003108E1
:1013C800BD003008BC002908F2002D080A128A1551
:1013D80000200A128A15730883120313C1007208C9
:1013E800C0004008B000B101B201B3013008B7072E
:1013F800310803110318013E0319032AB8073208FC
:1014080003110318013E03190A2AB9073308031107
:101418000318013E0319112ABA074108B000B101A7
:10142800B201B3013008BC07310803110318013EAB
:1014380003191F2ABD07320803110318013E0319B7
:10144800262ABE07330803110318013E03192D2A63
:10145800BF072A08F2002C080A128A1500200A126F
:101468008A15730883120313C1007208C00040086C
:10147800B000B101B201B3013008B7073108031158
:101488000318013E0319492AB80732080311031843
:10149800013E0319502AB907330803110318013E06
:1014A8000319572ABA074108B000B101B201B301C4
:1014B8003008BC07310803110318013E0319652AD7
:1014C800BD07320803110318013E03196C2ABE0731
:1014D800330803110318013E0319732ABF070830A4
:1014E800B0000310B70DB80DB90DBA0DB00B752AC1
:1014F8002908F2002C080A128A1500200A128A15F7
:10150800730883120313C1007208C0004008B000BA
:101518004108B100B201B3013008B707310803111F
:101528000318013E0319992AB80732080311031852
:10153800013E0319A02AB907330803110318013E15
:101548000319A72ABA072808F2002D080A128A15D3
:1015580000200A128A15730883120313C100720847
:10156800C0004008B0004108B100B201B301300822
:10157800B707310803110318013E0319C42AB80735
:10158800320803110318013E0319CB2AB90733089F
:1015980003110318013E0319D22ABA070830B00014
:1015A8000310B70DB80DB90DBA0DB00BD42A280821
:1015B800F2002C080A128A1500200A128A157308EC
:1015C80083120313C1007208C0004008B00041082C
:1015D800B100B201B3013008B7073108031103188D
:1015E800013E0319F82AB807320803110318013E0F
:1015F8000319FF2AB907330803110318013E031919
:10160800062BBA072908F2002E080A128A150020AC
:101618000A128A15730883120313C1007208C000E6
:101628004008B0004108B100B201B3013008BC075E
:10163800310803110318013E0319232BBD07320893
:1016480003110318013E03192A2BBE07330803119F
:101658000318013E0319312BBF072A08F2002D0891
:101668000A128A1500200A128A15730883120313B6
:10167800C1007208C0004008B0004108B100B201C2
:10168800B3013008BC07310803110318013E0319E0
:101698004E2BBD07320803110318013E0319552BC1
:1016A800BE07330803110318013E03195C2BBF075B
:1016B8002A08F2002E080A128A1500200A128A1532
:1016C800730883120313C1007208C0004008B000F9
:1016D8004108B100B201B30108300310B00DB10DDB
:1016E800B20DB30DFF3E031D712B3008BC07310846
:1016F80003110318013E0319822BBD073208031199
:101708000318013E0319892BBE0733080311031878
:10171800013E0319902BBF073708B0003808B10005
:101728003908B2003A08B30018300310B30CB20CF1
:10173800B10CB00CFF3E031D992B3008BC073108D3
:1017480003110318013E0319AA2BBD073208031120
:101758000318013E0319B12BBE0733080311031800
:10176800013E0319B82BBF070830B0000310B70DAE
:10177800B80DB90DBA0DB00BBA2B3B083607B0003F
:10178800B101B10D3008823EC00031080318013E96
:10179800FF3EC100EC2B0130B0000310BC0DBD0DA5
:1017A800BE0DBF0DB00BD12BBA1FDB2BDC2BDD2BF5
:1017B8003C140130B0000310B70DB80DB90DBA0DC7
:1017C800B00BDF2BFF30C0070318C10AFF30C10779
:1017D800BE1FEF2BF02BCF2BB601BA1FF42BF52B26
:1017E800112CFF303705B000FF303805B100FF304D
:1017F8003905B2007F303A05B300330832043104AA
:1018080030040319082C092C0C2CB601B60A112C2B
:101818003C1C0F2C102C112C092C36080319152CE4
:10182800162C472C0130BC07003003180130BD07C7
:10183800003003180130BE07003003180130BF071D
:101848003F1C272C282C472C3C08B0003D08B10031
:101858003E08B2003F08B3000130B400330DB30CAA
:10186800B20CB10CB00CB40B322C3308BF003208E8
:10187800BE003108BD003008BC000130C0070318A5
:10188800C10A0030C1074108803AFF0080307F025A
:10189800031D502CFF304002031C532C542C5F2C8A
:1018A8007F3083120313BF008030BE000030BD00BC
:1018B8000030BC00902C831203134108803AFF00CB
:1018C80080307F02031D6A2C0130400203186D2C02
:1018D8006E2C7A2C003083120313BF000030BE0038
:1018E8000030BD000030BC00B501902C83120313FA
:1018F8004008BB00FF30BC05FF30BD057F30BE058A
:101908000030BF053B1C892C8A2C8B2CBE173B084A
:10191800B0000310300CBF003508B0003008BF0419
:101928003F08AB003E08AA003D08A9003C08A800F3
:10193800080083120313D400D41FA32CA42C532E05
:10194800D409D40A5408803A123E031CAC2CAD2C9E
:10195800972D0A30A0000030A1005408F400F501CA
:10196800F41BF5036430F2000030F3000A168A1500
:1019780002240A128A15730883120313A30072083B
:10198800A2000A168A1520250A128A158312031343
:101998002008C60001300310C60DFF3E031DCF2CE2
:1019A8000310460D593E84000A168A110A200A12AD
:1019B8008A15C7000A168A110A200A128A15C80051
:1019C8000A168A110A200A128A15C9000A168A11EB
:1019D8000A200A128A15CA004A08AB004908AA0058
:1019E8004808A9004708A8006430A0000030A100FA
:1019F8005408A200A301A21BA3030A168A152025D6
:101A08000A128A15831203132008CB000130031031
:101A1800CB0DFF3E031D0B2D03104B0D7D3E8400A7
:101A28000A168A110A200A128A15CC000A168A1187
:101A38000A200A128A15CD000A168A110A200A12EB
:101A48008A15CE000A168A110A200A128A15CF00B2
:101A58004F08AF004E08AE004D08AD004C08AC0072
:101A68000A128A1558210A128A15831203132B08A1
:101A7800D3002A08D2002908D1002808D0000A304B
:101A8800F2000030F3005408F400F501F41BF503EC
:101A98000A168A1502240A128A1572088312031379
:101AA800C60001300310C60DFF3E031D562D03105E
:101AB800460D353E84000A168A110A200A128A1534
:101AC800C7000A168A110A200A128A15C8000A16BF
:101AD8008A110A200A128A15C9000A168A110A20D0
:101AE8000A128A15CA004A08AB004908AA00480821
:101AF800A9004708A8005308AF005208AE005108D3
:101B0800AD005008AC000A128A1558210A128A152D
:101B1800831203132B08C5002A08C4002908C30030
:101B28002808C200FF2F5408803A753E031C9D2DDB
:101B38009E2D262E0A30F2000030F3005408F400DF
:101B4800F501F41BF5030A168A1502240A128A15F0
:101B5800720883120313C60001300310C60DFF3E3E
:101B6800031DB12D0310460D353E84000A168A1157
:101B78000A200A128A15C7000A168A110A200A12B0
:101B88008A15C8000A168A110A200A128A15C9007D
:101B98000A168A110A200A128A15CA004A08AB00D6
:101BA8004908AA004808A9004708A8000A30A00068
:101BB8000030A1005408A200A301A21BA3030A1627
:101BC8008A1520250A128A15831203132008CB00D0
:101BD80001300310CB0DFF3E031DED2D03104B0DFF
:101BE800593E84000A168A110A200A128A15CC0066
:101BF8000A168A110A200A128A15CD000A168A11B5
:101C08000A200A128A15CE000A168A110A200A1218
:101C18008A15CF004F08AF004E08AE004D08AD0042
:101C28004C08AC000A128A1558210A128A15831228
:101C380003132B08C5002A08C4002908C300280874
:101C4800C200FF2F5408C60001300310C60DFF3E26
:101C5800031D292E0310460D353E84000A168A11ED
:101C68000A200A128A15C7000A168A110A200A12BF
:101C78008A15C8000A168A110A200A128A15C9008C
:101C88000A168A110A200A128A15CA004A08C500CB
:101C98004908C4004808C3004708C200FF2F540879
:101CA800803A123E031C592E5A2E442F0A30A000A7
:101CB8000030A1005408F400F501F41BF50364306A
:101CC800F2000030F3000A168A1502240A128A1557
:101CD800730883120313A3007208A2000A168A1558
:101CE80020250A128A15831203132008C600013022
:101CF8000310C60DFF3E031D7C2E0310460D253E26
:101D080084000A168A110A200A128A15C7000A16C0
:101D18008A110A200A128A15C8000A168A110A208E
:101D28000A128A15C9000A168A110A200A128A1587
:101D3800CA004A08AB004908AA004808A900470891
:101D4800A8006430A0000030A1005408A200A3013C
:101D5800A21BA3030A168A1520250A128A158312C4
:101D680003132008CB0001300310CB0DFF3E031DE9
:101D7800B82E03104B0D493E84000A168A110A201A
:101D88000A128A15CC000A168A110A200A128A1524
:101D9800CD000A168A110A200A128A15CE000A16E0
:101DA8008A110A200A128A15CF004F08AF004E0880
:101DB800AE004D08AD004C08AC000A128A15582137
:101DC8000A128A15831203132B08D3002A08D2009B
:101DD8002908D1002808D0000A30F2000030F300AA
:101DE8005408F400F501F41BF5030A168A150224B9
:101DF8000A128A15720883120313C60001300310F1
:101E0800C60DFF3E031D032F0310460D013E84003F
:101E18000A168A110A200A128A15C7000A168A1198
:101E28000A200A128A15C8000A168A110A200A12FC
:101E38008A15C9000A168A110A200A128A15CA00C8
:101E48004A08AB004908AA004808A9004708A800A2
:101E58005308AF005208AE005108AD005008AC005E
:101E68000A128A1558210A128A15831203132B089D
:101E7800C5002A08C4002908C3002808C200FF2F8B
:101E88005408803A753E031C4A2F4B2FD32F0A3033
:101E9800F2000030F3005408F400F501F41BF503D8
:101EA8000A168A1502240A128A1572088312031365
:101EB800C60001300310C60DFF3E031D5E2F031040
:101EC800460D013E84000A168A110A200A128A1554
:101ED800C7000A168A110A200A128A15C8000A16AB
:101EE8008A110A200A128A15C9000A168A110A20BC
:101EF8000A128A15CA004A08AB004908AA0048080D
:101F0800A9004708A8000A30A0000030A100540822
:101F1800A200A301A21BA3030A168A1520250A12F0
:101F28008A15831203132008CB0001300310CB0D50
:101F3800FF3E031D9A2F03104B0D253E84000A1601
:101F48008A110A200A128A15CC000A168A110A2058
:101F58000A128A15CD000A168A110A200A128A1551
:101F6800CE000A168A110A200A128A15CF004F08D5
:101F7800AF004E08AE004D08AD004C08AC000A1288
:101F88008A1558210A128A15831203132B08C500D3
:101F98002A08C4002908C3002808C200FF2F5408D3
:101FA800C60001300310C60DFF3E031DD62F0310D7
:101FB800460D013E84000A168A110A200A128A1563
:101FC800C7000A168A110A200A128A15C8000A16BA
:101FD8008A110A200A128A15C9000A168A110A20CB
:101FE8000A128A15CA004A08C5004908C4004808E8
:101FF800C3004708C2000800FF1B0A2883137F1884
:1020080083170008840A0319FF0A080010308A00A1
:102018000408840A820700340034003480343F34D2
:10202800003400342034413400340034C83442349D
:10203800003400347A344434003440341C34463498
:1020480000345034C33447340034243474344934AD
:102058008034963418344B342034BC34BE344C3479
:1020680028346B346E344E34F93402341534503419
:10207800EC347834AD346034CA34F23449347134D1
:102088000034003480343F34CD34CC34CC343D3447
:102098000A34D73423343C346F34123483343A341A
:1020A8001734B734D1343834AC34C53427343734E2
:1020B800BD343734863435349534BF34D63433346C
:1020C8007734CC342B3432345F3470348934303440
:1020D800FF34E634DB342E340834E5343C341E3423
:1020E80060344234A2340D340134003400340034F6
:1020F8000A340034003400346434003400340034CA
:10210800E834033400340034103427340034003405
:10211800A034863401340034403442340F3400345F
:1021280080349634983400340034E134F53405347E
:102138000034CA349A343B3425342E34323466346D
:10214800003443344F344E34003453343134003483
:0A215800533432340034563400349E
:1021680083120313A301A401DD2823087707A10024
:102178007808A0000318A00AA31FC328A00383128D
:1021880003132008A2002208FF00210884000A1671
:102198008A1100200A168A110A168A15CE210A16F3
:1021A8008A11013083120313A3070318A40A00300D
:1021B800A40723087707A1007808A0000318A00A3D
:1021C800A31FE728A003831203132008A2002208F4
:1021D800FF00210884000A168A1100200A168A11B5
:1021E800003A031DF828F928B928080083120313B8
:1021F800D5006E305502031C02290329122A3F30EC
:10220800AB000030AA000030A9000030A8006430FC
:10221800F2000030F3005508C600C7014608F40074
:102228004708F5000A168A157C220A168A117208D0
:1022380083120313C80001300310C80DFF3E031DAD
:1022480020290310480D7D3E84000A168A110A20B1
:102258000A168A11C9000A168A110A200A168A1152
:10226800CA000A168A110A200A168A11CB000A1611
:102278008A110A200A168A11CC004C08AF004B08B4
:10228800AE004A08AD004908AC000A128A15582168
:102298000A168A11831203132B08D4002A08D300C4
:1022A8002908D2002808D1000A30F2000030F300D3
:1022B8005508C600C7014608A2004708A3006430B5
:1022C800A0000030A1000A168A1503220A168A11F6
:1022D800831203132108F5002008F4000A168A1552
:1022E8007C220A168A11720883120313C80001306F
:1022F8000310C80DFF3E031D7C290310480D593EED
:1023080084000A168A110A200A168A11C9000A16B8
:102318008A110A200A168A11CA000A168A110A2086
:102328000A168A11CB000A168A110A200A168A117F
:10233800CC004C08AB004B08AA004A08A900490881
:10234800A8005408AF005308AE005208AD00510869
:10235800AC000A128A1558210A168A11831203132F
:102368002B08D0002A08CF002908CE002808CD0065
:102378000A30A0000030A1005508C600C701460871
:10238800A2004708A3000A168A1503220A168A1112
:10239800831203132008C80001300310C80DFF3E44
:1023A800031DD1290310480D353E84000A168A11F1
:1023B8000A200A168A11C9000A168A110A200A1662
:1023C8008A11CA000A168A110A200A168A11CB0035
:1023D8000A168A110A200A168A11CC004C08AB008A
:1023E8004B08AA004A08A9004908A8005008AF00ED
:1023F8004F08AE004E08AD004D08AC000A128A1511
:1024080058210A168A11831203132B08C5002A08BB
:10241800C4002908C3002808C200062B0B30550247
:10242800031C172A182AC32A3F30AB000030AA0021
:102438000030A9000030A8000A30F2000030F30094
:102448005508C600C7014608F4004708F5000A16F3
:102458008A157C220A168A11720883120313C8008F
:1024680001300310C80DFF3E031D352A0310480D27
:10247800593E84000A168A110A200A168A11C900D0
:102488000A168A110A200A168A11CA000A168A111F
:102498000A200A168A11CB000A168A110A200A167F
:1024A8008A11CC004C08AF004B08AE004A08AD00BA
:1024B8004908AC000A128A1558210A168A11831293
:1024C80003132B08D4002A08D3002908D2002808AF
:1024D800D1000A30A0000030A1005508C600C7018D
:1024E8004608A2004708A3000A168A1503220A16FE
:1024F8008A11831203132008C80001300310C80D85
:10250800FF3E031D822A0310480D353E84000A163B
:102518008A110A200A168A11C9000A168A110A2085
:102528000A168A11CA000A168A110A200A168A117E
:10253800CB000A168A110A200A168A11CC004C0808
:10254800AB004B08AA004A08A9004908A80054088B
:10255800AF005308AE005208AD005108AC000A1293
:102568008A1558210A168A11831203132B08C500ED
:102578002A08C4002908C3002808C200062B3F30D7
:10258800AB000030AA000030A9000030A8005508B0
:10259800C60001300310C60DFF3E031DCE2A0310EE
:1025A800460D353E84000A168A110A200A168A1139
:1025B800C7000A168A110A200A168A11C8000A16C4
:1025C8008A110A200A168A11C9000A168A110A20D5
:1025D8000A168A11CA004A08AF004908AE0048081E
:1025E800AD004708AC000A128A1558210A168A114C
:1025F800831203132B08C5002A08C4002908C30046
:102608002808C20008008312031359088039E6001D
:102618005908DE005E07E800D81F132B142B152B72
:10262800681468080319192B1A2B2A2B680A031D2A
:102638001E2B1F2B272B0030D9000030D80000306C
:10264800D7000030D600D817D901322B0030D90076
:102658000030D8000030D7000030D6005D0880393F
:10266800E7006708660603193A2B3B2B3C2B6617D5
:102678005D08DE005E07E700DC1F432B442B452B7B
:10268800671467080319492B4A2B5A2B670A031D3D
:102698004E2B4F2B572B0030DD000030DC00003074
:1026A800DB000030DA00DC17DD01622B0030DD00D2
:1026B8000030DC000030DB000030DA006808670218
:1026C8000318672B682B8E2B661F6B2B6C2B702BBC
:1026D8008030DE005E08E6066808E9006708E80062
:1026E8006908E7005608E9005A08D6006908DA00C0
:1026F8005708E9005B08D7006908DB005808E900BB
:102708005C08D8006908DC005908E9005D08D900B0
:102718006908DD00E9016708DE00DF015F08E10004
:1027280068085E02E000031CE1036108803AFF00CC
:1027380080307F02031DA22B1A306002031CA52BD8
:10274800A62BDD2B8312031359085804570456048B
:10275800031DAF2BB12B0130B22B0030E900003044
:10276800D9000030D8000030D7000030D600670804
:10277800E800E52B691CC12BC22BC92B6908DE00B8
:1027880003105E0C0138E900CB2B0310E90C561C32
:10279800CE2BCF2BD02BE9170130DE00590DD90CE9
:1027A800D80CD70CD60CDE0BD22B0130DE005E081D
:1027B800E8078312031367086802031CE42BE52B60
:1027C800BE2B661BE82BE92B322C6808031DED2B6A
:1027D800EE2BF72B0030D9000030D8000030D7009E
:1027E8000030D6005E2D5A08D6075B08031103187F
:1027F800013E0319002CD7075C0803110318013E9A
:102808000319072CD8075D0803110318013E0319A3
:102818000E2CD907591C112C122CE62C691C152CCE
:10282800162C1D2C6908DE0003105E0C0138E90027
:102838001F2C0310E90C561C222C232C242CE917DE
:102848000130DE00590DD90CD80CD70CD60CDE0B94
:10285800262C0130DE005E08E807E62C5908803A8D
:10286800FF005D08803A7F02031D442C5C08580273
:10287800031D442C5B085702031D442C5A085602BA
:102888000318472C482CA02CFF30DE00FF30DF0057
:10289800FF30E000FF30E1005A08E2005B08E30087
:1028A8005C08E4005D08E5005608E2025708031CCE
:1028B800570F5F2C602CE3025808031C580F652C37
:1028C800662CE4025908031C590F6B2C6C2CE5028A
:1028D8006208DE0763080318630F732C742CDF0784
:1028E80064080318640F792C7A2CE007650803182C
:1028F800650AE1076108D9006008D8005F08D700B9
:102908005E08D6008030DE005E08E606E909E90ABE
:102918006908031D902C912CAE2C0130D60700308D
:1029280003180130D707003003180130D8070030EA
:1029380003180130D907AE2C5A08D6025B08031CCD
:102948005B0FD7025C08031C5C0FD8025D08031CF0
:102958005D0FD9025908580457045604031DB52CB5
:10296800B62CE22C6908031DBA2CBB2CE22C0030D3
:10297800D9000030D8000030D7000030D6005E2DD6
:102988000130DE000310D60DD70DD80DD90DDE0BA2
:10299800C62CE91FD02CD12CD22C5614691CD52C4E
:1029A800D62CD92C0314E90DDB2C0310E90D68088B
:1029B8000319DF2CE02CE22C0130E802D81FE52CAB
:1029C800E62CC42CE701E91FEA2CEB2CF92C69084A
:1029D8007F390319F02CF12CF42CE701E70AF92CC4
:1029E800561CF72CF82CF92CF12C67080319FD2C30
:1029F800FE2C322D0130D607003003180130D707DE
:102A0800003003180130D807003003180130D90707
:102A1800591C0F2D102D322D5608DE005708DF00E7
:102A28005808E0005908E1000130E200610DE10CAE
:102A3800E00CDF0CDE0CE20B1A2D6108D9006008EF
:102A4800D8005F08D7005E08D600680A03192D2D44
:102A58002E2D322D0130DE005E08E807680A0319C2
:102A6800362D372D3C2D6808031D3B2D3C2D4A2D56
:102A78000030D9000030D8000030D7000030D60030
:102A88006808031D482D492D4A2DE601681C4D2D67
:102A98004E2D502DD817542D7F30DE005E08D805F6
:102AA8006808DE0003105E0CD900E61F5C2D5D2D62
:102AB8005E2DD91708000A168A153F220A168A11B0
:102AC8000A168A155B240A168A110A168A15FC202A
:102AD8000A168A1183120313071507308316031386
:102AE800C7007C30C600C60B772DC70B772D0000BA
:102AF800831203130711930183160313141C852DE6
:102B0800862D802D83120313130883160313C60022
:102B1800C7014608DE004708DF00073083160313A5
:102B2800C7007C30C600C60B972DC70B972D000039
:102B3800831203130715073083160313C7007C306D
:102B4800C600C60BA52DC70BA52D000083120313C5
:102B580007110130930083160313141CB42DB52DEF
:102B6800AF2D83120313130883160313C600C7017E
:102B7800C801C9014908F5004808F4004708F300EE
:102B88004608F20000300A128A117E260A168A11B7
:102B9800750883160313DD007408DC007308DB0076
:102BA8007208DA008312031307150730831603131C
:102BB800C7007C30C600C60BDF2DC70BDF2D000019
:102BC800831203138714073083160313C7007C305E
:102BD800C600C60BED2DC70BED2D000083120313A5
:102BE8008710930183160313141CFB2DFC2DF62D5F
:102BF80083120313130883160313C600C701C80101
:102C0800C9014908F5004808F4004708F3004608D8
:102C1800F20000300A128A117E260A168A117508F7
:102C280083160313D9007408D8007308D7007208F4
:102C3800D600831203138714A53083160313C60026
:102C4800C60B242E272E0230F60001300A168A15EC
:102C5800C0220A168A119A30F7008030F8000A1646
:102C68008A11B4200A168A110830F60001300A16B3
:102C78008A15C0220A168A119D30F7008030F800A4
:102C88000A168A11B4200A168A110D30F60001308E
:102C98000A168A15C0220A168A119630F700803063
:102CA800F8000A168A11B4200A168A11F601F60AE3
:102CB80002300A168A15C0220A168A114330831276
:102CC8000313C5007F30C4000030C3000030C200C9
:102CD8004030AB00A030AA000030A9000030A800A6
:102CE800831603135D0883120313AF0083160313BF
:102CF8005C0883120313AE00831603135B08831268
:102D08000313AD00831603135A0883120313AC0090
:102D18000A128A1558210A168A11831203132B08DE
:102D2800C9002A08C8002908C7002808C6000A16CA
:102D38008A152D260A168A1183120313450883164D
:102D48000313D10083120313440883160313D0001E
:102D580083120313430883160313CF00831203134C
:102D6800420883160313CE00913083120313EA003E
:102D780083160313510883120313EE0083160313FB
:102D8800500883120313ED00831603134F088312B0
:102D98000313EC00831603134E0883120313EB008E
:102DA800E9300A128A1135200A168A11E930F7002B
:102DB8000030F8000A168A11B4200A168A11A030C9
:102DC800F7008030F8000A168A11B4200A168A1112
:102DD8000D30F60002300A168A15C0220A168A112A
:102DE8006430F2000030F300831603135F08F50027
:102DF8005E08F4000A168A157C220A168A117208DF
:102E080083120313EF000A30A0000030A1000A303B
:102E1800F2000030F300831603135F08F5005E0824
:102E2800F4000A168A157C220A168A11730883127E
:102E38000313A3007208A2000A168A1503220A16B1
:102E48008A1183120313200883160313E4000A303F
:102E580083120313A0000030A100831603135F0838
:102E680083120313A300831603135E08831203134C
:102E7800A2000A168A1503220A168A11831203135E
:102E8800200883160313E300831203136F08303EF0
:102E98000A168A15CE210A168A11831603136408A6
:102EA800303E0A168A15CE210A168A118316031394
:102EB8006308303E0A168A15CE210A168A11073091
:102EC800F60002300A168A15C0220A168A11433003
:102ED80083120313C5007F30C4000030C3000030E4
:102EE800C2004030AB00A030AA000030A90000307A
:102EF800A80083160313590883120313AF0083161F
:102F08000313580883120313AE00831603135708DC
:102F180083120313AD008316031356088312031399
:102F2800AC000A128A1558210A168A118312031353
:102F38002B08C9002A08C8002908C7002808C600A5
:102F48000A168A152D260A168A11831203134508B4
:102F580083160313CD008312031344088316031347
:102F6800CC0083120313430883160313CB00831288
:102F78000313420883160313CA0091308312031304
:102F8800EA00831603134D0883120313EE00831619
:102F980003134C0883120313ED00831603134B0825
:102FA80083120313EC00831603134A0883120313D6
:102FB800EB00E5300A128A1135200A168A11E5302D
:102FC800F7000030F8000A168A11B4200A168A1190
:102FD800A030F7008030F8000A168A11B4200A16CB
:102FE8008A11A53083160313C600C60BF92FFC2FD0
:082FF8006E2D0A128A110C284B
:1031D20064008001840A0406031900340406EA2804
:1031E20075087404730472040319F828F928FB287B
:1031F2008030F506080000300A168A1544210A16A6
:103202008A1501300A168A1544210A168A15080001
:10321200F300F2013A307302031810291129192917
:1032220030307302031C162917291929F201F20AF8
:10323200720C08007E088A007F0882000A168A152E
:103242001B210A168A158000840A04087D060319C8
:103252000034FF0A0319FE0A1F29F500831603131F
:103262008712751D352936293A2974089400871565
:103272003E2972087404940087117508730483123E
:10328200031394000800F500831203130811750854
:103292000A168A155E210A168A15831203138815E7
:1032A2000330F4009730F300F30B5529F40B552942
:1032B2005A298312031388110800F200721C622932
:1032C200632967298312031308166A2983120313D9
:1032D2000812F21C6D296E2970298816712988122C
:1032E200721D742975297729081778290813F21D88
:1032F2007B297C297E2988177F2988130800F601FB
:10330200F701721C852986298C297408F60703188F
:10331200F70A7508F70701300310F40DF50DFF3EAB
:10332200031D8D2901300310F30CF20CFF3E031D27
:10333200942972087304031D9F29A0298229770802
:10334200F3007608F2000800831203138C1DAA29E9
:10335200AB29AC298C110C1EAF29B029B1290C1252
:103362008C1EB429B529B6298C120C1FB929BA2989
:10337200BB290C130B1DBE29BF29C229B330810002
:103382000B110B1CC529C629C7290B1071088A000D
:10339200700E8300FE0E7E0E0900F60076080F39CD
:1033A200F4007608F039F500831203130815750846
:1033B200F30004300310F30CFF3E031DDB297308F6
:1033C2000A168A155E210A168A15831203138815B6
:1033D2000630F300F30BEB2900008312031388116C
:1033E20074080A168A155E210A168A1583120313B7
:1033F20088150630F300F30BFC2900008312031337
:1034020088110800831203132008210403190A2AD1
:103412000B2A3A2AA501A50A192A01300310A00D88
:10342200A10DFF3E031D0F2A0130A4002408A507A9
:10343200A11F1C2A1D2A0E2A21082302031D232A4A
:1034420020082202031C262A272A2D2A2008A2024B
:103452002108031CA303A30201300310A10CA00C3A
:10346200FF3E031D2E2A0130A502031D392A3A2AE6
:103472001D2A2308A1002208A000080083160317B2
:103482008801890183160313850186018801890158
:1034920083120313850186018801890183160313B0
:1034A2000711831203130711831603138710831264
:1034B200031387108B130B13831603138C110C1336
:1034C2008B12831203138C110C130B100B11831626
:1034D20003130F088F3950388F000F148312031310
:1034E2009413F201F301F40120300A168A152E21F9
:1034F2000A168A150800F701F80172087304031905
:10350200832A842ABB2AF901F90A922A013003107C
:10351200F20DF30DFF3E031D882A0130F6007608F6
:10352200F907F31F952A962A872A01300310F70D0F
:10353200F80DFF3E031D972A73087502031DA32A87
:1035420072087402031CA62AA72AAE2A7208F40281
:103552007308031CF503F502771401300310F30C12
:10356200F20CFF3E031DAF2A0130F902031DBA2AF5
:10357200BB2A962A7808F3007708F2000800831223
:103582000313A0002003031DC72AC82AE72A7608CE
:103592007F3EA3002308F70004300310F70CFF3E20
:1035A200031DCE2A7708A10023080F39A2002108A3
:1035B2000A168A1544210A168A1583120313220851
:1035C2000A168A1544210A168A150B2B0230200688
:1035D200031DEC2AED2A0B2B7608BF3EA30023081D
:1035E200F70004300310F70CFF3E031DF32A77089F
:1035F200A10023080F39A20021080A168A154421C6
:103602000A168A158312031322080A168A15442100
:103612000A168A1508000030720583120313A000EF
:1036220000307305A10080307405A2007F3075055B
:10363200A3002308220421042004031D212B222B92
:103642002A2B0030F5000030F4000030F300003087
:10365200F20000307605A00000307705A10080302E
:103662007805A2007F307905A300230822042104F3
:103672002004031D3D2B3E2B462B0030F900003069
:10368200F8000030F7000030F60079087506031DD7
:10369200542B78087406031D542B77087306031DF8
:1036A200542B760872060319572B582B5A2B0310EA
:1036B2005B2B03140800803083160313A30627082C
:1036C20083120313D90083160313260883120313EC
:1036D200D80083160313250883120313D700831619
:1036E2000313240883120313D6008316031323083B
:1036F20083120313DD0083160313220883120313BC
:10370200DC0083160313210883120313DB008316E4
:103712000313200883120313DA000A168A110723FF
:103722000A168A1583120313590883160313A3007A
:1037320083120313580883160313A2008312031380
:10374200570883160313A100831203135608831626
:103752000313A000080075087404730472040319AB
:10376200B32BB42BF92B83120313A101A10AC62B8D
:103772000130A0000310F20DF30DF40DF50DA00BB6
:10378200BB2B0130A0002008A107F51FC92BCA2BB3
:10379200B92B75087902031DD82B74087802031D12
:1037A200D82B73087702031DD82B72087602031CEC
:1037B200DB2BDC2BEA2B7208F6027308031C730F57
:1037C200F7027408031C740FF8027508031C750FC6
:1037D200F90201300310F50CF40CF30CF20CFF3E6D
:1037E200031DEB2B0130A102031DF82BF92BCA2B71
:1037F2007908F5007808F4007708F3007608F200FB
:103802000800F801F51F062C072C0E2CF409F50907
:10381200F40A0319F50AF801F80AF31F112C122C05
:10382200172CF209F309F20A0319F30A7208730456
:1038320003191C2C1D2C4C2CF701F70A2B2C0130E0
:103842000310F20DF30DFF3E031D212C0130F60093
:103852007608F707F31F2E2C2F2C202C73087502E5
:10386200031D352C72087402031C382C392C3F2C92
:103872007208F4027308031CF503F5020130031009
:10388200F30CF20CFF3E031D402C0130F702031D26
:103892004B2C4C2C2F2C78080319502C512C562CC5
:1038A200F409F509F40A0319F50A7508F300740816
:1038B200F200080000300A168A155E210A168A15DF
:1038C2000D30F700FB30F600F60B652CF70B652C7C
:1038D2006A2C03300A168A1544210A168A15043006
:1038E200F7003D30F600F60B742CF70B742C792C94
:1038F20003300A168A1544210A168A150830F70081
:103902002330F600F60B832CF70B832C03300A16B8
:103912008A1544210A168A1502300A168A1544218C
:103922000A168A1502300A168A1544210A168A15C1
:1039320008300A168A1544210A168A1500300A161A
:103942008A1544210A168A150C300A168A15442152
:103952000A168A1500300A168A1544210A168A1593
:1039620006300A168A1544210A168A150800003004
:1039720083120313A4000030A3000030A200003021
:10398200A10075087404730472040319C92CCA2CAB
:10399200172DA501A50ADA2C0130A0000310F20DA3
:1039A200F30DF40DF50DA00BCF2C0130A000200873
:1039B200A507F51FDD2CDE2CCD2C0130A000031055
:1039C200A10DA20DA30DA40DA00BE02C7508790288
:1039D200031DF52C74087802031DF52C7308770279
:1039E200031DF52C72087602031CF82CF92C082D05
:1039F2007208F6027308031C730FF7027408031CA3
:103A0200740FF8027508031C750FF90221140130B6
:103A12000310F50CF40CF30CF20CFF3E031D092D00
:103A22000130A502031D162D172DDE2C2408F500EA
:103A32002308F4002208F3002108F2000800831290
:103A42000313A501A11F262D272D2E2DA009A109A3
:103A5200A00A0319A10AA501A50AA31F312D322D1F
:103A62003B2DA209A309A20A0319A30A0130F900F6
:103A72007908A506A601A701200821040319422DF1
:103A8200432D7A2DA401A40A512D01300310A00D5B
:103A9200A10DFF3E031D472D0130F9007908A4074F
:103AA200A11F542D552D462D01300310A60DA70D33
:103AB200FF3E031D562D21082302031D622D2008FF
:103AC2002202031C652D662D6D2D2008A2022108FD
:103AD200031CA303A302261401300310A10CA00CA3
:103AE200FF3E031D6E2D0130A402031D792D7A2D98
:103AF200552D250803197E2D7F2D842DA609A70992
:103B0200A60A0319A70A2708A1002608A000080090
:103B12000030720583120313A00000307305A10068
:103B220080307405A2007F307505A30023082204AB
:103B320021042004031D9E2D9F2DA72D0030F5008A
:103B42000030F4000030F3000030F200003076055F
:103B5200A00000307705A10080307805A2007F30F8
:103B62007905A3002308220421042004031DBA2D91
:103B7200BB2DC32D0030F9000030F8000030F700F3
:103B82000030F600F51FC62DC72DEB2D0030A0002A
:103B92000030A1000030A2008030A3007208A00211
:103BA2007308031C730FD62DD72DA1027408031CB2
:103BB200740FDC2DDD2DA2027508031C750FE22D9A
:103BC200E32DA3022308F5002208F4002108F300E4
:103BD2002008F200F91FEE2DEF2D132E0030A00069
:103BE2000030A1000030A2008030A3007608A002BD
:103BF2007708031C770FFE2DFF2DA1027808031C06
:103C0200780F042E052EA2027908031C790F0A2EC2
:103C12000B2EA3022308F9002208F8002108F7005E
:103C22002008F6008030F5068030F9067908750222
:103C3200031D252E78087402031D252E77087302B2
:103C4200031D252E760872020318282E292E2B2EEC
:103C520003102C2E03140800831203134908803921
:103C6200D3004908CA004A07DA00C81F392E3A2E83
:103C72003B2E5A145A0803193F2E402E502E5A0A30
:103C8200031D442E452E4D2E0030C9000030C800C1
:103C92000030C7000030C600C817C901582E0030D6
:103CA200C9000030C8000030C7000030C600450817
:103CB2008039CA004A08D3064508CA004A07DB0011
:103CC200C41F642E652E662E5B145B0803196A2ED0
:103CD2006B2E7B2E5B0A031D6F2E702E782E00300A
:103CE200C5000030C4000030C3000030C200C41759
:103CF200C501832E0030C5000030C4000030C3006F
:103D02000030C2004508440443044204031D8A2EC5
:103D12008B2EA42E0030C9000030C8000030C7002E
:103D22000030C6008030C8047F30C9045308CA007E
:103D32004A08C9044908C5004808C4004708C30026
:103D42004608C200FF2F5A08031DA82EA92EB22E24
:103D52000030C5000030C4000030C3000030C20093
:103D6200FF2F5A08CA00CB014B08CD005B084A025C
:103D7200CC00031CCD034C087F3ED4004D08031831
:103D8200013E003ED5004908D2004808D10047084C
:103D9200D0004608CF000030C9000030C800003013
:103DA200C7000030C6000030D9000030D800003013
:103DB200D7000030D600DB01282F5B080319E22E62
:103DC200E32E032F0130CA000310CF0DD00DD10D09
:103DD200D20DCA0BE52E0130CA000310C60DC70D65
:103DE200C80DC90DCA0BEE2ED91FF82EF92EFA2EC8
:103DF20046140130CA000310D60DD70DD80DD90DC7
:103E0200CA0BFC2E45085202031D112F4408510211
:103E1200031D112F43085002031D112F42084F02A8
:103E2200031C142F152F242F59174208CF024308C1
:103E3200031C430FD0024408031C440FD10245085F
:103E4200031C450FD2020130CA004A08DB071A30B0
:103E52005B02031C2D2F2E2FDE2E5208510450041C
:103E62004F040319352F362F552F5614552F013075
:103E7200CA000310C60DC70DC80DC90DCA0B3A2FD3
:103E8200D91F442F452F462F46140130CA00031074
:103E9200D60DD70DD80DD90DCA0B482FFF30D40738
:103EA2000318D50AFF30D507C81F582F592F382FAE
:103EB200DB01D91F5D2F5E2F7A2FFF305605CA0016
:103EC200FF305705CB00FF305805CC007F30590535
:103ED200CD004D084C044B044A040319712F722F74
:103EE200752FDB01DB0A7A2F461C782F792F7A2F68
:103EF200722F5B0803197E2F7F2FB02F0130C60768
:103F0200003003180130C707003003180130C8071A
:103F1200003003180130C907491C902F912FB02F90
:103F22004608CA004708CB004808CC004908CD0023
:103F32000130CE004D0DCD0CCC0CCB0CCA0CCE0BEF
:103F42009B2F4D08C9004C08C8004B08C7004A08FF
:103F5200C6000130D4070318D50A0030D50755082A
:103F6200803AFF0080307F02031DB92FFF305402D8
:103F7200031CBC2FBD2FCB2FFF3083120313D400A1
:103F82000030D5000030C9000030C8000030C70042
:103F92000030C600831203135508803AFF008030B8
:103FA2007F02031DD62F013054020318D92FDA2FB6
:103FB200E72F83120313D401D5010030C90000306A
:103FC200C8000030C7000030C600D30183120313BB
:103FD2005408DA005A1CEE2FEF2FF12FC817F52FD5
:103FE2007F30CA004A08C8055A08CA0003104A0CA2
:103FF200C9005308CA004A08C9049B2E0800FF3FA3
:06400200FF3FFF3FFF3FFE
:04400E00D420FF3F7C
:00000001FF
